{
  "_format": "hh-sol-artifact-1",
  "contractName": "MyEpicGame",
  "sourceName": "contracts/MyEpicGame.sol",
  "abi": [
    {
      "inputs": [
        {
          "internalType": "string[]",
          "name": "characterNames",
          "type": "string[]"
        },
        {
          "internalType": "string[]",
          "name": "characterImageURIs",
          "type": "string[]"
        },
        {
          "internalType": "uint256[]",
          "name": "characterHp",
          "type": "uint256[]"
        },
        {
          "internalType": "uint256[]",
          "name": "characterAttackDmg",
          "type": "uint256[]"
        },
        {
          "internalType": "string",
          "name": "bossName",
          "type": "string"
        },
        {
          "internalType": "string",
          "name": "bossImageURI",
          "type": "string"
        },
        {
          "internalType": "uint256",
          "name": "bossHp",
          "type": "uint256"
        },
        {
          "internalType": "uint256",
          "name": "bossAttackDamage",
          "type": "uint256"
        }
      ],
      "stateMutability": "nonpayable",
      "type": "constructor"
    },
    {
      "anonymous": false,
      "inputs": [
        {
          "indexed": true,
          "internalType": "address",
          "name": "owner",
          "type": "address"
        },
        {
          "indexed": true,
          "internalType": "address",
          "name": "approved",
          "type": "address"
        },
        {
          "indexed": true,
          "internalType": "uint256",
          "name": "tokenId",
          "type": "uint256"
        }
      ],
      "name": "Approval",
      "type": "event"
    },
    {
      "anonymous": false,
      "inputs": [
        {
          "indexed": true,
          "internalType": "address",
          "name": "owner",
          "type": "address"
        },
        {
          "indexed": true,
          "internalType": "address",
          "name": "operator",
          "type": "address"
        },
        {
          "indexed": false,
          "internalType": "bool",
          "name": "approved",
          "type": "bool"
        }
      ],
      "name": "ApprovalForAll",
      "type": "event"
    },
    {
      "anonymous": false,
      "inputs": [
        {
          "indexed": false,
          "internalType": "uint256",
          "name": "newBossHp",
          "type": "uint256"
        },
        {
          "indexed": false,
          "internalType": "uint256",
          "name": "newPlayerHp",
          "type": "uint256"
        }
      ],
      "name": "AttackComplete",
      "type": "event"
    },
    {
      "anonymous": false,
      "inputs": [
        {
          "indexed": false,
          "internalType": "address",
          "name": "sender",
          "type": "address"
        },
        {
          "indexed": false,
          "internalType": "uint256",
          "name": "tokenId",
          "type": "uint256"
        },
        {
          "indexed": false,
          "internalType": "uint256",
          "name": "characterIndex",
          "type": "uint256"
        }
      ],
      "name": "CharacterNftMinted",
      "type": "event"
    },
    {
      "anonymous": false,
      "inputs": [
        {
          "indexed": true,
          "internalType": "address",
          "name": "from",
          "type": "address"
        },
        {
          "indexed": true,
          "internalType": "address",
          "name": "to",
          "type": "address"
        },
        {
          "indexed": true,
          "internalType": "uint256",
          "name": "tokenId",
          "type": "uint256"
        }
      ],
      "name": "Transfer",
      "type": "event"
    },
    {
      "inputs": [
        {
          "internalType": "address",
          "name": "to",
          "type": "address"
        },
        {
          "internalType": "uint256",
          "name": "tokenId",
          "type": "uint256"
        }
      ],
      "name": "approve",
      "outputs": [],
      "stateMutability": "nonpayable",
      "type": "function"
    },
    {
      "inputs": [],
      "name": "attackBoss",
      "outputs": [],
      "stateMutability": "nonpayable",
      "type": "function"
    },
    {
      "inputs": [
        {
          "internalType": "address",
          "name": "owner",
          "type": "address"
        }
      ],
      "name": "balanceOf",
      "outputs": [
        {
          "internalType": "uint256",
          "name": "",
          "type": "uint256"
        }
      ],
      "stateMutability": "view",
      "type": "function"
    },
    {
      "inputs": [],
      "name": "bigBoss",
      "outputs": [
        {
          "internalType": "string",
          "name": "name",
          "type": "string"
        },
        {
          "internalType": "string",
          "name": "imageURI",
          "type": "string"
        },
        {
          "internalType": "uint256",
          "name": "hp",
          "type": "uint256"
        },
        {
          "internalType": "uint256",
          "name": "maxHp",
          "type": "uint256"
        },
        {
          "internalType": "uint256",
          "name": "attackDamage",
          "type": "uint256"
        }
      ],
      "stateMutability": "view",
      "type": "function"
    },
    {
      "inputs": [],
      "name": "checkUserNFT",
      "outputs": [
        {
          "components": [
            {
              "internalType": "uint256",
              "name": "characterIndex",
              "type": "uint256"
            },
            {
              "internalType": "string",
              "name": "name",
              "type": "string"
            },
            {
              "internalType": "string",
              "name": "imageURI",
              "type": "string"
            },
            {
              "internalType": "uint256",
              "name": "hp",
              "type": "uint256"
            },
            {
              "internalType": "uint256",
              "name": "maxHp",
              "type": "uint256"
            },
            {
              "internalType": "uint256",
              "name": "attackDamage",
              "type": "uint256"
            }
          ],
          "internalType": "struct MyEpicGame.CharacterAttributes",
          "name": "",
          "type": "tuple"
        }
      ],
      "stateMutability": "view",
      "type": "function"
    },
    {
      "inputs": [
        {
          "internalType": "uint256",
          "name": "tokenId",
          "type": "uint256"
        }
      ],
      "name": "getApproved",
      "outputs": [
        {
          "internalType": "address",
          "name": "",
          "type": "address"
        }
      ],
      "stateMutability": "view",
      "type": "function"
    },
    {
      "inputs": [],
      "name": "getBigBoss",
      "outputs": [
        {
          "components": [
            {
              "internalType": "string",
              "name": "name",
              "type": "string"
            },
            {
              "internalType": "string",
              "name": "imageURI",
              "type": "string"
            },
            {
              "internalType": "uint256",
              "name": "hp",
              "type": "uint256"
            },
            {
              "internalType": "uint256",
              "name": "maxHp",
              "type": "uint256"
            },
            {
              "internalType": "uint256",
              "name": "attackDamage",
              "type": "uint256"
            }
          ],
          "internalType": "struct MyEpicGame.BigBoss",
          "name": "",
          "type": "tuple"
        }
      ],
      "stateMutability": "view",
      "type": "function"
    },
    {
      "inputs": [],
      "name": "getDefaultCharacters",
      "outputs": [
        {
          "components": [
            {
              "internalType": "uint256",
              "name": "characterIndex",
              "type": "uint256"
            },
            {
              "internalType": "string",
              "name": "name",
              "type": "string"
            },
            {
              "internalType": "string",
              "name": "imageURI",
              "type": "string"
            },
            {
              "internalType": "uint256",
              "name": "hp",
              "type": "uint256"
            },
            {
              "internalType": "uint256",
              "name": "maxHp",
              "type": "uint256"
            },
            {
              "internalType": "uint256",
              "name": "attackDamage",
              "type": "uint256"
            }
          ],
          "internalType": "struct MyEpicGame.CharacterAttributes[]",
          "name": "",
          "type": "tuple[]"
        }
      ],
      "stateMutability": "view",
      "type": "function"
    },
    {
      "inputs": [
        {
          "internalType": "address",
          "name": "owner",
          "type": "address"
        },
        {
          "internalType": "address",
          "name": "operator",
          "type": "address"
        }
      ],
      "name": "isApprovedForAll",
      "outputs": [
        {
          "internalType": "bool",
          "name": "",
          "type": "bool"
        }
      ],
      "stateMutability": "view",
      "type": "function"
    },
    {
      "inputs": [
        {
          "internalType": "uint256",
          "name": "_characterIndex",
          "type": "uint256"
        }
      ],
      "name": "mintCharacterNFT",
      "outputs": [],
      "stateMutability": "nonpayable",
      "type": "function"
    },
    {
      "inputs": [],
      "name": "name",
      "outputs": [
        {
          "internalType": "string",
          "name": "",
          "type": "string"
        }
      ],
      "stateMutability": "view",
      "type": "function"
    },
    {
      "inputs": [
        {
          "internalType": "uint256",
          "name": "",
          "type": "uint256"
        }
      ],
      "name": "nftHolderAttributes",
      "outputs": [
        {
          "internalType": "uint256",
          "name": "characterIndex",
          "type": "uint256"
        },
        {
          "internalType": "string",
          "name": "name",
          "type": "string"
        },
        {
          "internalType": "string",
          "name": "imageURI",
          "type": "string"
        },
        {
          "internalType": "uint256",
          "name": "hp",
          "type": "uint256"
        },
        {
          "internalType": "uint256",
          "name": "maxHp",
          "type": "uint256"
        },
        {
          "internalType": "uint256",
          "name": "attackDamage",
          "type": "uint256"
        }
      ],
      "stateMutability": "view",
      "type": "function"
    },
    {
      "inputs": [
        {
          "internalType": "address",
          "name": "",
          "type": "address"
        }
      ],
      "name": "nftHolders",
      "outputs": [
        {
          "internalType": "uint256",
          "name": "",
          "type": "uint256"
        }
      ],
      "stateMutability": "view",
      "type": "function"
    },
    {
      "inputs": [
        {
          "internalType": "uint256",
          "name": "tokenId",
          "type": "uint256"
        }
      ],
      "name": "ownerOf",
      "outputs": [
        {
          "internalType": "address",
          "name": "",
          "type": "address"
        }
      ],
      "stateMutability": "view",
      "type": "function"
    },
    {
      "inputs": [
        {
          "internalType": "address",
          "name": "from",
          "type": "address"
        },
        {
          "internalType": "address",
          "name": "to",
          "type": "address"
        },
        {
          "internalType": "uint256",
          "name": "tokenId",
          "type": "uint256"
        }
      ],
      "name": "safeTransferFrom",
      "outputs": [],
      "stateMutability": "nonpayable",
      "type": "function"
    },
    {
      "inputs": [
        {
          "internalType": "address",
          "name": "from",
          "type": "address"
        },
        {
          "internalType": "address",
          "name": "to",
          "type": "address"
        },
        {
          "internalType": "uint256",
          "name": "tokenId",
          "type": "uint256"
        },
        {
          "internalType": "bytes",
          "name": "_data",
          "type": "bytes"
        }
      ],
      "name": "safeTransferFrom",
      "outputs": [],
      "stateMutability": "nonpayable",
      "type": "function"
    },
    {
      "inputs": [
        {
          "internalType": "address",
          "name": "operator",
          "type": "address"
        },
        {
          "internalType": "bool",
          "name": "approved",
          "type": "bool"
        }
      ],
      "name": "setApprovalForAll",
      "outputs": [],
      "stateMutability": "nonpayable",
      "type": "function"
    },
    {
      "inputs": [
        {
          "internalType": "bytes4",
          "name": "interfaceId",
          "type": "bytes4"
        }
      ],
      "name": "supportsInterface",
      "outputs": [
        {
          "internalType": "bool",
          "name": "",
          "type": "bool"
        }
      ],
      "stateMutability": "view",
      "type": "function"
    },
    {
      "inputs": [],
      "name": "symbol",
      "outputs": [
        {
          "internalType": "string",
          "name": "",
          "type": "string"
        }
      ],
      "stateMutability": "view",
      "type": "function"
    },
    {
      "inputs": [
        {
          "internalType": "uint256",
          "name": "_tokenId",
          "type": "uint256"
        }
      ],
      "name": "tokenURI",
      "outputs": [
        {
          "internalType": "string",
          "name": "",
          "type": "string"
        }
      ],
      "stateMutability": "view",
      "type": "function"
    },
    {
      "inputs": [
        {
          "internalType": "address",
          "name": "from",
          "type": "address"
        },
        {
          "internalType": "address",
          "name": "to",
          "type": "address"
        },
        {
          "internalType": "uint256",
          "name": "tokenId",
          "type": "uint256"
        }
      ],
      "name": "transferFrom",
      "outputs": [],
      "stateMutability": "nonpayable",
      "type": "function"
    }
  ],
  "bytecode": "0x60806040523480156200001157600080fd5b506040516200561a3803806200561a833981810160405281019062000037919062000a5a565b6040518060400160405280600481526020017f43617473000000000000000000000000000000000000000000000000000000008152506040518060400160405280600381526020017f43415400000000000000000000000000000000000000000000000000000000008152508160009080519060200190620000bb929190620007ed565b508060019080519060200190620000d4929190620007ed565b5050506040518060a0016040528085815260200184815260200183815260200183815260200182815250600660008201518160000190805190602001906200011e929190620007ed565b5060208201518160010190805190602001906200013d929190620007ed565b50604082015181600201556060820151816003015560808201518160040155905050620002c06040518060600160405280602a8152602001620055cb602a9139600660000180546200018f9062000de5565b80601f0160208091040260200160405190810160405280929190818152602001828054620001bd9062000de5565b80156200020e5780601f10620001e2576101008083540402835291602001916200020e565b820191906000526020600020905b815481529060010190602001808311620001f057829003601f168201915b5050505050600660020154600660010180546200022b9062000de5565b80601f0160208091040260200160405190810160405280929190818152602001828054620002599062000de5565b8015620002aa5780601f106200027e57610100808354040283529160200191620002aa565b820191906000526020600020905b8154815290600101906020018083116200028c57829003601f168201915b50505050506200070260201b62001cc31760201c565b60005b8851811015620006dc57600c6040518060c001604052808381526020018b84815181106200031a577f4e487b7100000000000000000000000000000000000000000000000000000000600052603260045260246000fd5b602002602001015181526020018a848151811062000361577f4e487b7100000000000000000000000000000000000000000000000000000000600052603260045260246000fd5b60200260200101518152602001898481518110620003a8577f4e487b7100000000000000000000000000000000000000000000000000000000600052603260045260246000fd5b60200260200101518152602001898481518110620003ef577f4e487b7100000000000000000000000000000000000000000000000000000000600052603260045260246000fd5b6020026020010151815260200188848151811062000436577f4e487b7100000000000000000000000000000000000000000000000000000000600052603260045260246000fd5b6020026020010151815250908060018154018082558091505060019003906000526020600020906006020160009091909190915060008201518160000155602082015181600101908051906020019062000492929190620007ed565b506040820151816002019080519060200190620004b1929190620007ed565b50606082015181600301556080820151816004015560a0820151816005015550506000600c82815481106200050f577f4e487b7100000000000000000000000000000000000000000000000000000000600052603260045260246000fd5b90600052602060002090600602016040518060c001604052908160008201548152602001600182018054620005449062000de5565b80601f0160208091040260200160405190810160405280929190818152602001828054620005729062000de5565b8015620005c35780601f106200059757610100808354040283529160200191620005c3565b820191906000526020600020905b815481529060010190602001808311620005a557829003601f168201915b50505050508152602001600282018054620005de9062000de5565b80601f01602080910402602001604051908101604052809291908181526020018280546200060c9062000de5565b80156200065d5780601f1062000631576101008083540402835291602001916200065d565b820191906000526020600020905b8154815290600101906020018083116200063f57829003601f168201915b5050505050815260200160038201548152602001600482015481526020016005820154815250509050620006c4604051806060016040528060258152602001620055f5602591398260200151836060015184604001516200070260201b62001cc31760201c565b50600181620006d4919062000d48565b9050620002c3565b50620006f4600b620007ae60201b62001d651760201c565b505050505050505062000ed3565b620007a8848484846040516024016200071f949392919062000c05565b6040516020818303038152906040527f8d142cdd000000000000000000000000000000000000000000000000000000007bffffffffffffffffffffffffffffffffffffffffffffffffffffffff19166020820180517bffffffffffffffffffffffffffffffffffffffffffffffffffffffff8381831617835250505050620007c460201b60201c565b50505050565b6001816000016000828254019250508190555050565b60008151905060006a636f6e736f6c652e6c6f679050602083016000808483855afa5050505050565b828054620007fb9062000de5565b90600052602060002090601f0160209004810192826200081f57600085556200086b565b82601f106200083a57805160ff19168380011785556200086b565b828001600101855582156200086b579182015b828111156200086a5782518255916020019190600101906200084d565b5b5090506200087a91906200087e565b5090565b5b80821115620008995760008160009055506001016200087f565b5090565b6000620008b4620008ae8462000c9b565b62000c67565b9050808382526020820190508260005b85811015620008f85781518501620008dd888262000a16565b845260208401935060208301925050600181019050620008c4565b5050509392505050565b600062000919620009138462000cca565b62000c67565b905080838252602082019050828560208602820111156200093957600080fd5b60005b858110156200096d578162000952888262000a43565b8452602084019350602083019250506001810190506200093c565b5050509392505050565b60006200098e620009888462000cf9565b62000c67565b905082815260208101848484011115620009a757600080fd5b620009b484828562000daf565b509392505050565b600082601f830112620009ce57600080fd5b8151620009e08482602086016200089d565b91505092915050565b600082601f830112620009fb57600080fd5b815162000a0d84826020860162000902565b91505092915050565b600082601f83011262000a2857600080fd5b815162000a3a84826020860162000977565b91505092915050565b60008151905062000a548162000eb9565b92915050565b600080600080600080600080610100898b03121562000a7857600080fd5b600089015167ffffffffffffffff81111562000a9357600080fd5b62000aa18b828c01620009bc565b985050602089015167ffffffffffffffff81111562000abf57600080fd5b62000acd8b828c01620009bc565b975050604089015167ffffffffffffffff81111562000aeb57600080fd5b62000af98b828c01620009e9565b965050606089015167ffffffffffffffff81111562000b1757600080fd5b62000b258b828c01620009e9565b955050608089015167ffffffffffffffff81111562000b4357600080fd5b62000b518b828c0162000a16565b94505060a089015167ffffffffffffffff81111562000b6f57600080fd5b62000b7d8b828c0162000a16565b93505060c062000b908b828c0162000a43565b92505060e062000ba38b828c0162000a43565b9150509295985092959890939650565b600062000bc08262000d2c565b62000bcc818562000d37565b935062000bde81856020860162000daf565b62000be98162000ea8565b840191505092915050565b62000bff8162000da5565b82525050565b6000608082019050818103600083015262000c21818762000bb3565b9050818103602083015262000c37818662000bb3565b905062000c48604083018562000bf4565b818103606083015262000c5c818462000bb3565b905095945050505050565b6000604051905081810181811067ffffffffffffffff8211171562000c915762000c9062000e79565b5b8060405250919050565b600067ffffffffffffffff82111562000cb95762000cb862000e79565b5b602082029050602081019050919050565b600067ffffffffffffffff82111562000ce85762000ce762000e79565b5b602082029050602081019050919050565b600067ffffffffffffffff82111562000d175762000d1662000e79565b5b601f19601f8301169050602081019050919050565b600081519050919050565b600082825260208201905092915050565b600062000d558262000da5565b915062000d628362000da5565b9250827fffffffffffffffffffffffffffffffffffffffffffffffffffffffffffffffff0382111562000d9a5762000d9962000e1b565b5b828201905092915050565b6000819050919050565b60005b8381101562000dcf57808201518184015260208101905062000db2565b8381111562000ddf576000848401525b50505050565b6000600282049050600182168062000dfe57607f821691505b6020821081141562000e155762000e1462000e4a565b5b50919050565b7f4e487b7100000000000000000000000000000000000000000000000000000000600052601160045260246000fd5b7f4e487b7100000000000000000000000000000000000000000000000000000000600052602260045260246000fd5b7f4e487b7100000000000000000000000000000000000000000000000000000000600052604160045260246000fd5b6000601f19601f8301169050919050565b62000ec48162000da5565b811462000ed057600080fd5b50565b6146e88062000ee36000396000f3fe608060405234801561001057600080fd5b50600436106101375760003560e01c80637df124a1116100b8578063b88d4fde1161007c578063b88d4fde1461036b578063c87b56dd14610387578063d21eead7146103b7578063d4f24c5b146103d5578063e985e9c5146103df578063f8b81ef71461040f57610137565b80637df124a1146102aa57806395d89b41146102da57806398da4c95146102f8578063a22cb4651461032d578063a9c326791461034957610137565b806323b872dd116100ff57806323b872dd146101f457806342842e0e146102105780636352211e1461022c57806370a082311461025c57806374bce80a1461028c57610137565b806301ffc9a71461013c5780630665f9611461016c57806306fdde031461018a578063081812fc146101a8578063095ea7b3146101d8575b600080fd5b61015660048036038101906101519190612f9d565b61042b565b6040516101639190613cc6565b60405180910390f35b61017461050d565b604051610181919061405f565b60405180910390f35b610192610669565b60405161019f9190613ce1565b60405180910390f35b6101c260048036038101906101bd9190612fef565b6106fb565b6040516101cf9190613c3d565b60405180910390f35b6101f260048036038101906101ed9190612f61565b610780565b005b61020e60048036038101906102099190612e5b565b610898565b005b61022a60048036038101906102259190612e5b565b6108f8565b005b61024660048036038101906102419190612fef565b610918565b6040516102539190613c3d565b60405180910390f35b61027660048036038101906102719190612df6565b6109ca565b60405161028391906140a3565b60405180910390f35b610294610a82565b6040516102a19190613ca4565b60405180910390f35b6102c460048036038101906102bf9190612df6565b610c2d565b6040516102d191906140a3565b60405180910390f35b6102e2610c45565b6040516102ef9190613ce1565b60405180910390f35b610312600480360381019061030d9190612fef565b610cd7565b604051610324969594939291906140be565b60405180910390f35b61034760048036038101906103429190612f25565b610e23565b005b610351610fa4565b604051610362959493929190613db0565b60405180910390f35b61038560048036038101906103809190612eaa565b6110d8565b005b6103a1600480360381019061039c9190612fef565b61113a565b6040516103ae9190613ce1565b60405180910390f35b6103bf611355565b6040516103cc9190614081565b60405180910390f35b6103dd61152d565b005b6103f960048036038101906103f49190612e1f565b611876565b6040516104069190613cc6565b60405180910390f35b61042960048036038101906104249190612fef565b61190a565b005b60007f80ac58cd000000000000000000000000000000000000000000000000000000007bffffffffffffffffffffffffffffffffffffffffffffffffffffffff1916827bffffffffffffffffffffffffffffffffffffffffffffffffffffffff191614806104f657507f5b5e139f000000000000000000000000000000000000000000000000000000007bffffffffffffffffffffffffffffffffffffffffffffffffffffffff1916827bffffffffffffffffffffffffffffffffffffffffffffffffffffffff1916145b80610506575061050582611d7b565b5b9050919050565b610515612c1d565b60066040518060a0016040529081600082018054610532906143e6565b80601f016020809104026020016040519081016040528092919081815260200182805461055e906143e6565b80156105ab5780601f10610580576101008083540402835291602001916105ab565b820191906000526020600020905b81548152906001019060200180831161058e57829003601f168201915b505050505081526020016001820180546105c4906143e6565b80601f01602080910402602001604051908101604052809291908181526020018280546105f0906143e6565b801561063d5780601f106106125761010080835404028352916020019161063d565b820191906000526020600020905b81548152906001019060200180831161062057829003601f168201915b505050505081526020016002820154815260200160038201548152602001600482015481525050905090565b606060008054610678906143e6565b80601f01602080910402602001604051908101604052809291908181526020018280546106a4906143e6565b80156106f15780601f106106c6576101008083540402835291602001916106f1565b820191906000526020600020905b8154815290600101906020018083116106d457829003601f168201915b5050505050905090565b600061070682611de5565b610745576040517f08c379a000000000000000000000000000000000000000000000000000000000815260040161073c90613fdf565b60405180910390fd5b6004600083815260200190815260200160002060009054906101000a900473ffffffffffffffffffffffffffffffffffffffff169050919050565b600061078b82610918565b90508073ffffffffffffffffffffffffffffffffffffffff168373ffffffffffffffffffffffffffffffffffffffff1614156107fc576040517f08c379a00000000000000000000000000000000000000000000000000000000081526004016107f39061401f565b60405180910390fd5b8073ffffffffffffffffffffffffffffffffffffffff1661081b611e51565b73ffffffffffffffffffffffffffffffffffffffff16148061084a575061084981610844611e51565b611876565b5b610889576040517f08c379a000000000000000000000000000000000000000000000000000000000815260040161088090613f3f565b60405180910390fd5b6108938383611e59565b505050565b6108a96108a3611e51565b82611f12565b6108e8576040517f08c379a00000000000000000000000000000000000000000000000000000000081526004016108df9061403f565b60405180910390fd5b6108f3838383611ff0565b505050565b610913838383604051806020016040528060008152506110d8565b505050565b6000806002600084815260200190815260200160002060009054906101000a900473ffffffffffffffffffffffffffffffffffffffff169050600073ffffffffffffffffffffffffffffffffffffffff168173ffffffffffffffffffffffffffffffffffffffff1614156109c1576040517f08c379a00000000000000000000000000000000000000000000000000000000081526004016109b890613f7f565b60405180910390fd5b80915050919050565b60008073ffffffffffffffffffffffffffffffffffffffff168273ffffffffffffffffffffffffffffffffffffffff161415610a3b576040517f08c379a0000000000000000000000000000000000000000000000000000000008152600401610a3290613f5f565b60405180910390fd5b600360008373ffffffffffffffffffffffffffffffffffffffff1673ffffffffffffffffffffffffffffffffffffffff168152602001908152602001600020549050919050565b6060600c805480602002602001604051908101604052809291908181526020016000905b82821015610c2457838290600052602060002090600602016040518060c001604052908160008201548152602001600182018054610ae3906143e6565b80601f0160208091040260200160405190810160405280929190818152602001828054610b0f906143e6565b8015610b5c5780601f10610b3157610100808354040283529160200191610b5c565b820191906000526020600020905b815481529060010190602001808311610b3f57829003601f168201915b50505050508152602001600282018054610b75906143e6565b80601f0160208091040260200160405190810160405280929190818152602001828054610ba1906143e6565b8015610bee5780601f10610bc357610100808354040283529160200191610bee565b820191906000526020600020905b815481529060010190602001808311610bd157829003601f168201915b50505050508152602001600382015481526020016004820154815260200160058201548152505081526020019060010190610aa6565b50505050905090565b600e6020528060005260406000206000915090505481565b606060018054610c54906143e6565b80601f0160208091040260200160405190810160405280929190818152602001828054610c80906143e6565b8015610ccd5780601f10610ca257610100808354040283529160200191610ccd565b820191906000526020600020905b815481529060010190602001808311610cb057829003601f168201915b5050505050905090565b600d602052806000526040600020600091509050806000015490806001018054610d00906143e6565b80601f0160208091040260200160405190810160405280929190818152602001828054610d2c906143e6565b8015610d795780601f10610d4e57610100808354040283529160200191610d79565b820191906000526020600020905b815481529060010190602001808311610d5c57829003601f168201915b505050505090806002018054610d8e906143e6565b80601f0160208091040260200160405190810160405280929190818152602001828054610dba906143e6565b8015610e075780601f10610ddc57610100808354040283529160200191610e07565b820191906000526020600020905b815481529060010190602001808311610dea57829003601f168201915b5050505050908060030154908060040154908060050154905086565b610e2b611e51565b73ffffffffffffffffffffffffffffffffffffffff168273ffffffffffffffffffffffffffffffffffffffff161415610e99576040517f08c379a0000000000000000000000000000000000000000000000000000000008152600401610e9090613eff565b60405180910390fd5b8060056000610ea6611e51565b73ffffffffffffffffffffffffffffffffffffffff1673ffffffffffffffffffffffffffffffffffffffff16815260200190815260200160002060008473ffffffffffffffffffffffffffffffffffffffff1673ffffffffffffffffffffffffffffffffffffffff16815260200190815260200160002060006101000a81548160ff0219169083151502179055508173ffffffffffffffffffffffffffffffffffffffff16610f53611e51565b73ffffffffffffffffffffffffffffffffffffffff167f17307eab39ab6107e8899845ad3d59bd9653f200f220920489ca2b5937696c3183604051610f989190613cc6565b60405180910390a35050565b6006806000018054610fb5906143e6565b80601f0160208091040260200160405190810160405280929190818152602001828054610fe1906143e6565b801561102e5780601f106110035761010080835404028352916020019161102e565b820191906000526020600020905b81548152906001019060200180831161101157829003601f168201915b505050505090806001018054611043906143e6565b80601f016020809104026020016040519081016040528092919081815260200182805461106f906143e6565b80156110bc5780601f10611091576101008083540402835291602001916110bc565b820191906000526020600020905b81548152906001019060200180831161109f57829003601f168201915b5050505050908060020154908060030154908060040154905085565b6110e96110e3611e51565b83611f12565b611128576040517f08c379a000000000000000000000000000000000000000000000000000000000815260040161111f9061403f565b60405180910390fd5b6111348484848461224c565b50505050565b60606000600d60008481526020019081526020016000206040518060c001604052908160008201548152602001600182018054611176906143e6565b80601f01602080910402602001604051908101604052809291908181526020018280546111a2906143e6565b80156111ef5780601f106111c4576101008083540402835291602001916111ef565b820191906000526020600020905b8154815290600101906020018083116111d257829003601f168201915b50505050508152602001600282018054611208906143e6565b80601f0160208091040260200160405190810160405280929190818152602001828054611234906143e6565b80156112815780601f1061125657610100808354040283529160200191611281565b820191906000526020600020905b81548152906001019060200180831161126457829003601f168201915b505050505081526020016003820154815260200160048201548152602001600582015481525050905060006112b982606001516122a8565b905060006112ca83608001516122a8565b905060006112db8460a001516122a8565b9050600061132185602001516112f0896122a8565b876040015187878760405160200161130d96959493929190613b76565b604051602081830303815290604052612455565b90506000816040516020016113369190613c1b565b6040516020818303038152906040529050809650505050505050919050565b61135d612c4c565b6000600e60003373ffffffffffffffffffffffffffffffffffffffff1673ffffffffffffffffffffffffffffffffffffffff168152602001908152602001600020549050600081111561151c57600d60008281526020019081526020016000206040518060c0016040529081600082015481526020016001820180546113e2906143e6565b80601f016020809104026020016040519081016040528092919081815260200182805461140e906143e6565b801561145b5780601f106114305761010080835404028352916020019161145b565b820191906000526020600020905b81548152906001019060200180831161143e57829003601f168201915b50505050508152602001600282018054611474906143e6565b80601f01602080910402602001604051908101604052809291908181526020018280546114a0906143e6565b80156114ed5780601f106114c2576101008083540402835291602001916114ed565b820191906000526020600020905b8154815290600101906020018083116114d057829003601f168201915b50505050508152602001600382015481526020016004820154815260200160058201548152505091505061152a565b611524612c4c565b80925050505b90565b6000600e60003373ffffffffffffffffffffffffffffffffffffffff1673ffffffffffffffffffffffffffffffffffffffff1681526020019081526020016000205490506000600d600083815260200190815260200160002090506116406040518060600160405280603c8152602001614677603c91398260010180546115b3906143e6565b80601f01602080910402602001604051908101604052809291908181526020018280546115df906143e6565b801561162c5780601f106116015761010080835404028352916020019161162c565b820191906000526020600020905b81548152906001019060200180831161160f57829003601f168201915b505050505083600301548460050154612613565b6117186040518060400160405280601b81526020017f426f73732025732068617320257320485020616e64202573204144000000000081525060066000018054611689906143e6565b80601f01602080910402602001604051908101604052809291908181526020018280546116b5906143e6565b80156117025780601f106116d757610100808354040283529160200191611702565b820191906000526020600020905b8154815290600101906020018083116116e557829003601f168201915b5050505050600660020154600660040154612613565b600081600301541161175f576040517f08c379a000000000000000000000000000000000000000000000000000000000815260040161175690613f9f565b60405180910390fd5b6000600660020154116117a7576040517f08c379a000000000000000000000000000000000000000000000000000000000815260040161179e90613e9f565b60405180910390fd5b806005015460066002015410156117c85760006006600201819055506117e7565b80600501546006600201546117dd91906142fc565b6006600201819055505b600660040154816003015410156118075760008160030181905550611825565b600660040154816003015461181c91906142fc565b81600301819055505b61184c6040518060600160405280602581526020016145bc602591396006600201546126b5565b6118726040518060600160405280602881526020016146216028913982600301546126b5565b5050565b6000600560008473ffffffffffffffffffffffffffffffffffffffff1673ffffffffffffffffffffffffffffffffffffffff16815260200190815260200160002060008373ffffffffffffffffffffffffffffffffffffffff1673ffffffffffffffffffffffffffffffffffffffff16815260200190815260200160002060009054906101000a900460ff16905092915050565b6000611916600b612751565b9050611922338261275f565b6040518060c00160405280838152602001600c848154811061196d577f4e487b7100000000000000000000000000000000000000000000000000000000600052603260045260246000fd5b90600052602060002090600602016001018054611989906143e6565b80601f01602080910402602001604051908101604052809291908181526020018280546119b5906143e6565b8015611a025780601f106119d757610100808354040283529160200191611a02565b820191906000526020600020905b8154815290600101906020018083116119e557829003601f168201915b50505050508152602001600c8481548110611a46577f4e487b7100000000000000000000000000000000000000000000000000000000600052603260045260246000fd5b90600052602060002090600602016002018054611a62906143e6565b80601f0160208091040260200160405190810160405280929190818152602001828054611a8e906143e6565b8015611adb5780601f10611ab057610100808354040283529160200191611adb565b820191906000526020600020905b815481529060010190602001808311611abe57829003601f168201915b50505050508152602001600c8481548110611b1f577f4e487b7100000000000000000000000000000000000000000000000000000000600052603260045260246000fd5b9060005260206000209060060201600301548152602001600c8481548110611b70577f4e487b7100000000000000000000000000000000000000000000000000000000600052603260045260246000fd5b9060005260206000209060060201600401548152602001600c8481548110611bc1577f4e487b7100000000000000000000000000000000000000000000000000000000600052603260045260246000fd5b906000526020600020906006020160050154815250600d6000838152602001908152602001600020600082015181600001556020820151816001019080519060200190611c0f929190612c82565b506040820151816002019080519060200190611c2c929190612c82565b50606082015181600301556080820151816004015560a08201518160050155905050611c716040518060600160405280602e8152602001614649602e9139828461277d565b80600e60003373ffffffffffffffffffffffffffffffffffffffff1673ffffffffffffffffffffffffffffffffffffffff16815260200190815260200160002081905550611cbf600b611d65565b5050565b611d5f84848484604051602401611cdd9493929190613d03565b6040516020818303038152906040527f8d142cdd000000000000000000000000000000000000000000000000000000007bffffffffffffffffffffffffffffffffffffffffffffffffffffffff19166020820180517bffffffffffffffffffffffffffffffffffffffffffffffffffffffff838183161783525050505061281c565b50505050565b6001816000016000828254019250508190555050565b60007f01ffc9a7000000000000000000000000000000000000000000000000000000007bffffffffffffffffffffffffffffffffffffffffffffffffffffffff1916827bffffffffffffffffffffffffffffffffffffffffffffffffffffffff1916149050919050565b60008073ffffffffffffffffffffffffffffffffffffffff166002600084815260200190815260200160002060009054906101000a900473ffffffffffffffffffffffffffffffffffffffff1673ffffffffffffffffffffffffffffffffffffffff1614159050919050565b600033905090565b816004600083815260200190815260200160002060006101000a81548173ffffffffffffffffffffffffffffffffffffffff021916908373ffffffffffffffffffffffffffffffffffffffff160217905550808273ffffffffffffffffffffffffffffffffffffffff16611ecc83610918565b73ffffffffffffffffffffffffffffffffffffffff167f8c5be1e5ebec7d5bd14f71427d1e84f3dd0314c0f7b2291e5b200ac8c7c3b92560405160405180910390a45050565b6000611f1d82611de5565b611f5c576040517f08c379a0000000000000000000000000000000000000000000000000000000008152600401611f5390613f1f565b60405180910390fd5b6000611f6783610918565b90508073ffffffffffffffffffffffffffffffffffffffff168473ffffffffffffffffffffffffffffffffffffffff161480611fd657508373ffffffffffffffffffffffffffffffffffffffff16611fbe846106fb565b73ffffffffffffffffffffffffffffffffffffffff16145b80611fe75750611fe68185611876565b5b91505092915050565b8273ffffffffffffffffffffffffffffffffffffffff1661201082610918565b73ffffffffffffffffffffffffffffffffffffffff1614612066576040517f08c379a000000000000000000000000000000000000000000000000000000000815260040161205d90613fff565b60405180910390fd5b600073ffffffffffffffffffffffffffffffffffffffff168273ffffffffffffffffffffffffffffffffffffffff1614156120d6576040517f08c379a00000000000000000000000000000000000000000000000000000000081526004016120cd90613edf565b60405180910390fd5b6120e1838383612845565b6120ec600082611e59565b6001600360008573ffffffffffffffffffffffffffffffffffffffff1673ffffffffffffffffffffffffffffffffffffffff168152602001908152602001600020600082825461213c91906142fc565b925050819055506001600360008473ffffffffffffffffffffffffffffffffffffffff1673ffffffffffffffffffffffffffffffffffffffff1681526020019081526020016000206000828254612193919061421b565b92505081905550816002600083815260200190815260200160002060006101000a81548173ffffffffffffffffffffffffffffffffffffffff021916908373ffffffffffffffffffffffffffffffffffffffff160217905550808273ffffffffffffffffffffffffffffffffffffffff168473ffffffffffffffffffffffffffffffffffffffff167fddf252ad1be2c89b69c2b068fc378daa952ba7f163c4a11628f55a4df523b3ef60405160405180910390a4505050565b612257848484611ff0565b6122638484848461284a565b6122a2576040517f08c379a000000000000000000000000000000000000000000000000000000000815260040161229990613e7f565b60405180910390fd5b50505050565b606060008214156122f0576040518060400160405280600181526020017f30000000000000000000000000000000000000000000000000000000000000008152509050612450565b600082905060005b6000821461232257808061230b90614418565b915050600a8261231b9190614271565b91506122f8565b60008167ffffffffffffffff811115612364577f4e487b7100000000000000000000000000000000000000000000000000000000600052604160045260246000fd5b6040519080825280601f01601f1916602001820160405280156123965781602001600182028036833780820191505090505b5090505b60008514612449576001826123af91906142fc565b9150600a856123be9190614461565b60306123ca919061421b565b60f81b818381518110612406577f4e487b7100000000000000000000000000000000000000000000000000000000600052603260045260246000fd5b60200101907effffffffffffffffffffffffffffffffffffffffffffffffffffffffffffff1916908160001a905350600a856124429190614271565b945061239a565b8093505050505b919050565b6060600082519050600081141561247e576040518060200160405280600081525091505061260e565b6000600360028361248f919061421b565b6124999190614271565b60046124a591906142a2565b905060006020826124b6919061421b565b67ffffffffffffffff8111156124f5577f4e487b7100000000000000000000000000000000000000000000000000000000600052604160045260246000fd5b6040519080825280601f01601f1916602001820160405280156125275781602001600182028036833780820191505090505b50905060006040518060600160405280604081526020016145e1604091399050600181016020830160005b868110156125cb5760038101905062ffffff818a015116603f8160121c168401518060081b905060ff603f83600c1c1686015116810190508060081b905060ff603f8360061c1686015116810190508060081b905060ff603f831686015116810190508060e01b90508084526004840193505050612552565b5060038606600181146125e557600281146125f557612600565b613d3d60f01b6002830352612600565b603d60f81b60018303525b508484525050819450505050505b919050565b6126af8484848460405160240161262d9493929190613d5d565b6040516020818303038152906040527fd5cf17d0000000000000000000000000000000000000000000000000000000007bffffffffffffffffffffffffffffffffffffffffffffffffffffffff19166020820180517bffffffffffffffffffffffffffffffffffffffffffffffffffffffff838183161783525050505061281c565b50505050565b61274d82826040516024016126cb929190613e11565b6040516020818303038152906040527f9710a9d0000000000000000000000000000000000000000000000000000000007bffffffffffffffffffffffffffffffffffffffffffffffffffffffff19166020820180517bffffffffffffffffffffffffffffffffffffffffffffffffffffffff838183161783525050505061281c565b5050565b600081600001549050919050565b6127798282604051806020016040528060008152506129e1565b5050565b61281783838360405160240161279593929190613e41565b6040516020818303038152906040527f969cdd03000000000000000000000000000000000000000000000000000000007bffffffffffffffffffffffffffffffffffffffffffffffffffffffff19166020820180517bffffffffffffffffffffffffffffffffffffffffffffffffffffffff838183161783525050505061281c565b505050565b60008151905060006a636f6e736f6c652e6c6f679050602083016000808483855afa5050505050565b505050565b600061286b8473ffffffffffffffffffffffffffffffffffffffff16612a3c565b156129d4578373ffffffffffffffffffffffffffffffffffffffff1663150b7a02612894611e51565b8786866040518563ffffffff1660e01b81526004016128b69493929190613c58565b602060405180830381600087803b1580156128d057600080fd5b505af192505050801561290157506040513d601f19601f820116820180604052508101906128fe9190612fc6565b60015b612984573d8060008114612931576040519150601f19603f3d011682016040523d82523d6000602084013e612936565b606091505b5060008151141561297c576040517f08c379a000000000000000000000000000000000000000000000000000000000815260040161297390613e7f565b60405180910390fd5b805181602001fd5b63150b7a0260e01b7bffffffffffffffffffffffffffffffffffffffffffffffffffffffff1916817bffffffffffffffffffffffffffffffffffffffffffffffffffffffff1916149150506129d9565b600190505b949350505050565b6129eb8383612a4f565b6129f8600084848461284a565b612a37576040517f08c379a0000000000000000000000000000000000000000000000000000000008152600401612a2e90613e7f565b60405180910390fd5b505050565b600080823b905060008111915050919050565b600073ffffffffffffffffffffffffffffffffffffffff168273ffffffffffffffffffffffffffffffffffffffff161415612abf576040517f08c379a0000000000000000000000000000000000000000000000000000000008152600401612ab690613fbf565b60405180910390fd5b612ac881611de5565b15612b08576040517f08c379a0000000000000000000000000000000000000000000000000000000008152600401612aff90613ebf565b60405180910390fd5b612b1460008383612845565b6001600360008473ffffffffffffffffffffffffffffffffffffffff1673ffffffffffffffffffffffffffffffffffffffff1681526020019081526020016000206000828254612b64919061421b565b92505081905550816002600083815260200190815260200160002060006101000a81548173ffffffffffffffffffffffffffffffffffffffff021916908373ffffffffffffffffffffffffffffffffffffffff160217905550808273ffffffffffffffffffffffffffffffffffffffff16600073ffffffffffffffffffffffffffffffffffffffff167fddf252ad1be2c89b69c2b068fc378daa952ba7f163c4a11628f55a4df523b3ef60405160405180910390a45050565b6040518060a0016040528060608152602001606081526020016000815260200160008152602001600081525090565b6040518060c001604052806000815260200160608152602001606081526020016000815260200160008152602001600081525090565b828054612c8e906143e6565b90600052602060002090601f016020900481019282612cb05760008555612cf7565b82601f10612cc957805160ff1916838001178555612cf7565b82800160010185558215612cf7579182015b82811115612cf6578251825591602001919060010190612cdb565b5b509050612d049190612d08565b5090565b5b80821115612d21576000816000905550600101612d09565b5090565b6000612d38612d338461415e565b61412d565b905082815260208101848484011115612d5057600080fd5b612d5b8482856143a4565b509392505050565b600081359050612d728161455f565b92915050565b600081359050612d8781614576565b92915050565b600081359050612d9c8161458d565b92915050565b600081519050612db18161458d565b92915050565b600082601f830112612dc857600080fd5b8135612dd8848260208601612d25565b91505092915050565b600081359050612df0816145a4565b92915050565b600060208284031215612e0857600080fd5b6000612e1684828501612d63565b91505092915050565b60008060408385031215612e3257600080fd5b6000612e4085828601612d63565b9250506020612e5185828601612d63565b9150509250929050565b600080600060608486031215612e7057600080fd5b6000612e7e86828701612d63565b9350506020612e8f86828701612d63565b9250506040612ea086828701612de1565b9150509250925092565b60008060008060808587031215612ec057600080fd5b6000612ece87828801612d63565b9450506020612edf87828801612d63565b9350506040612ef087828801612de1565b925050606085013567ffffffffffffffff811115612f0d57600080fd5b612f1987828801612db7565b91505092959194509250565b60008060408385031215612f3857600080fd5b6000612f4685828601612d63565b9250506020612f5785828601612d78565b9150509250929050565b60008060408385031215612f7457600080fd5b6000612f8285828601612d63565b9250506020612f9385828601612de1565b9150509250929050565b600060208284031215612faf57600080fd5b6000612fbd84828501612d8d565b91505092915050565b600060208284031215612fd857600080fd5b6000612fe684828501612da2565b91505092915050565b60006020828403121561300157600080fd5b600061300f84828501612de1565b91505092915050565b60006130248383613a38565b905092915050565b61303581614330565b82525050565b60006130468261419e565b61305081856141cc565b9350836020820285016130628561418e565b8060005b8581101561309e578484038952815161307f8582613018565b945061308a836141bf565b925060208a01995050600181019050613066565b50829750879550505050505092915050565b6130b981614342565b82525050565b60006130ca826141a9565b6130d481856141dd565b93506130e48185602086016143b3565b6130ed8161454e565b840191505092915050565b6000613103826141b4565b61310d81856141ee565b935061311d8185602086016143b3565b6131268161454e565b840191505092915050565b600061313c826141b4565b61314681856141ff565b93506131568185602086016143b3565b61315f8161454e565b840191505092915050565b6000613175826141b4565b61317f8185614210565b935061318f8185602086016143b3565b80840191505092915050565b60006131a8600b83614210565b91507f202d2d204e465420233a200000000000000000000000000000000000000000006000830152600b82019050919050565b60006131e86032836141ff565b91507f4552433732313a207472616e7366657220746f206e6f6e20455243373231526560008301527f63656976657220696d706c656d656e74657200000000000000000000000000006020830152604082019050919050565b600061324e6028836141ff565b91507f4572726f723a20626f7373206d757374206861766520485020746f206174746160008301527f636b20626f73732e0000000000000000000000000000000000000000000000006020830152604082019050919050565b60006132b4601c836141ff565b91507f4552433732313a20746f6b656e20616c7265616479206d696e746564000000006000830152602082019050919050565b60006132f4600e83614210565b91507f2c20226d61785f76616c7565223a0000000000000000000000000000000000006000830152600e82019050919050565b60006133346024836141ff565b91507f4552433732313a207472616e7366657220746f20746865207a65726f2061646460008301527f72657373000000000000000000000000000000000000000000000000000000006020830152604082019050919050565b600061339a6019836141ff565b91507f4552433732313a20617070726f766520746f2063616c6c6572000000000000006000830152602082019050919050565b60006133da602c836141ff565b91507f4552433732313a206f70657261746f7220717565727920666f72206e6f6e657860008301527f697374656e7420746f6b656e00000000000000000000000000000000000000006020830152604082019050919050565b60006134406038836141ff565b91507f4552433732313a20617070726f76652063616c6c6572206973206e6f74206f7760008301527f6e6572206e6f7220617070726f76656420666f7220616c6c00000000000000006020830152604082019050919050565b60006134a6602a836141ff565b91507f4552433732313a2062616c616e636520717565727920666f7220746865207a6560008301527f726f2061646472657373000000000000000000000000000000000000000000006020830152604082019050919050565b600061350c6029836141ff565b91507f4552433732313a206f776e657220717565727920666f72206e6f6e657869737460008301527f656e7420746f6b656e00000000000000000000000000000000000000000000006020830152604082019050919050565b6000613572602d836141ff565b91507f4572726f723a20636861726163746572206d757374206861766520485020746f60008301527f2061747461636b20626f73732e000000000000000000000000000000000000006020830152604082019050919050565b60006135d8600483614210565b91507f7d205d7d000000000000000000000000000000000000000000000000000000006000830152600482019050919050565b60006136186020836141ff565b91507f4552433732313a206d696e7420746f20746865207a65726f20616464726573736000830152602082019050919050565b6000613658602c836141ff565b91507f4552433732313a20617070726f76656420717565727920666f72206e6f6e657860008301527f697374656e7420746f6b656e00000000000000000000000000000000000000006020830152604082019050919050565b60006136be6029836141ff565b91507f4552433732313a207472616e73666572206f6620746f6b656e2074686174206960008301527f73206e6f74206f776e00000000000000000000000000000000000000000000006020830152604082019050919050565b6000613724600a83614210565b91507f7b226e616d65223a2022000000000000000000000000000000000000000000006000830152600a82019050919050565b6000613764605e83614210565b91507f222c20226465736372697074696f6e223a20225468697320697320616e204e4660008301527f542074686174206c6574732070656f706c6520706c617920696e20746865206760208301527f616d652043617461766572736520313321222c2022696d616765223a202200006040830152605e82019050919050565b60006137f06021836141ff565b91507f4552433732313a20617070726f76616c20746f2063757272656e74206f776e6560008301527f72000000000000000000000000000000000000000000000000000000000000006020830152604082019050919050565b6000613856601d83614210565b91507f646174613a6170706c69636174696f6e2f6a736f6e3b6261736536342c0000006000830152601d82019050919050565b60006138966031836141ff565b91507f4552433732313a207472616e736665722063616c6c6572206973206e6f74206f60008301527f776e6572206e6f7220617070726f7665640000000000000000000000000000006020830152604082019050919050565b60006138fc603d83614210565b91507f222c202261747472696275746573223a205b207b202274726169745f7479706560008301527f223a20224865616c746820506f696e7473222c202276616c7565223a200000006020830152603d82019050919050565b6000613962602d83614210565b91507f7d2c207b202274726169745f74797065223a202241747461636b2044616d616760008301527f65222c202276616c7565223a20000000000000000000000000000000000000006020830152602d82019050919050565b600060a08301600083015184820360008601526139d882826130f8565b915050602083015184820360208601526139f282826130f8565b9150506040830151613a076040860182613b58565b506060830151613a1a6060860182613b58565b506080830151613a2d6080860182613b58565b508091505092915050565b600060c083016000830151613a506000860182613b58565b5060208301518482036020860152613a6882826130f8565b91505060408301518482036040860152613a8282826130f8565b9150506060830151613a976060860182613b58565b506080830151613aaa6080860182613b58565b5060a0830151613abd60a0860182613b58565b508091505092915050565b600060c083016000830151613ae06000860182613b58565b5060208301518482036020860152613af882826130f8565b91505060408301518482036040860152613b1282826130f8565b9150506060830151613b276060860182613b58565b506080830151613b3a6080860182613b58565b5060a0830151613b4d60a0860182613b58565b508091505092915050565b613b618161439a565b82525050565b613b708161439a565b82525050565b6000613b8182613717565b9150613b8d828961316a565b9150613b988261319b565b9150613ba4828861316a565b9150613baf82613757565b9150613bbb828761316a565b9150613bc6826138ef565b9150613bd2828661316a565b9150613bdd826132e7565b9150613be9828561316a565b9150613bf482613955565b9150613c00828461316a565b9150613c0b826135cb565b9150819050979650505050505050565b6000613c2682613849565b9150613c32828461316a565b915081905092915050565b6000602082019050613c52600083018461302c565b92915050565b6000608082019050613c6d600083018761302c565b613c7a602083018661302c565b613c876040830185613b67565b8181036060830152613c9981846130bf565b905095945050505050565b60006020820190508181036000830152613cbe818461303b565b905092915050565b6000602082019050613cdb60008301846130b0565b92915050565b60006020820190508181036000830152613cfb8184613131565b905092915050565b60006080820190508181036000830152613d1d8187613131565b90508181036020830152613d318186613131565b9050613d406040830185613b67565b8181036060830152613d528184613131565b905095945050505050565b60006080820190508181036000830152613d778187613131565b90508181036020830152613d8b8186613131565b9050613d9a6040830185613b67565b613da76060830184613b67565b95945050505050565b600060a0820190508181036000830152613dca8188613131565b90508181036020830152613dde8187613131565b9050613ded6040830186613b67565b613dfa6060830185613b67565b613e076080830184613b67565b9695505050505050565b60006040820190508181036000830152613e2b8185613131565b9050613e3a6020830184613b67565b9392505050565b60006060820190508181036000830152613e5b8186613131565b9050613e6a6020830185613b67565b613e776040830184613b67565b949350505050565b60006020820190508181036000830152613e98816131db565b9050919050565b60006020820190508181036000830152613eb881613241565b9050919050565b60006020820190508181036000830152613ed8816132a7565b9050919050565b60006020820190508181036000830152613ef881613327565b9050919050565b60006020820190508181036000830152613f188161338d565b9050919050565b60006020820190508181036000830152613f38816133cd565b9050919050565b60006020820190508181036000830152613f5881613433565b9050919050565b60006020820190508181036000830152613f7881613499565b9050919050565b60006020820190508181036000830152613f98816134ff565b9050919050565b60006020820190508181036000830152613fb881613565565b9050919050565b60006020820190508181036000830152613fd88161360b565b9050919050565b60006020820190508181036000830152613ff88161364b565b9050919050565b60006020820190508181036000830152614018816136b1565b9050919050565b60006020820190508181036000830152614038816137e3565b9050919050565b6000602082019050818103600083015261405881613889565b9050919050565b6000602082019050818103600083015261407981846139bb565b905092915050565b6000602082019050818103600083015261409b8184613ac8565b905092915050565b60006020820190506140b86000830184613b67565b92915050565b600060c0820190506140d36000830189613b67565b81810360208301526140e58188613131565b905081810360408301526140f98187613131565b90506141086060830186613b67565b6141156080830185613b67565b61412260a0830184613b67565b979650505050505050565b6000604051905081810181811067ffffffffffffffff821117156141545761415361451f565b5b8060405250919050565b600067ffffffffffffffff8211156141795761417861451f565b5b601f19601f8301169050602081019050919050565b6000819050602082019050919050565b600081519050919050565b600081519050919050565b600081519050919050565b6000602082019050919050565b600082825260208201905092915050565b600082825260208201905092915050565b600082825260208201905092915050565b600082825260208201905092915050565b600081905092915050565b60006142268261439a565b91506142318361439a565b9250827fffffffffffffffffffffffffffffffffffffffffffffffffffffffffffffffff0382111561426657614265614492565b5b828201905092915050565b600061427c8261439a565b91506142878361439a565b925082614297576142966144c1565b5b828204905092915050565b60006142ad8261439a565b91506142b88361439a565b9250817fffffffffffffffffffffffffffffffffffffffffffffffffffffffffffffffff04831182151516156142f1576142f0614492565b5b828202905092915050565b60006143078261439a565b91506143128361439a565b92508282101561432557614324614492565b5b828203905092915050565b600061433b8261437a565b9050919050565b60008115159050919050565b60007fffffffff0000000000000000000000000000000000000000000000000000000082169050919050565b600073ffffffffffffffffffffffffffffffffffffffff82169050919050565b6000819050919050565b82818337600083830152505050565b60005b838110156143d15780820151818401526020810190506143b6565b838111156143e0576000848401525b50505050565b600060028204905060018216806143fe57607f821691505b60208210811415614412576144116144f0565b5b50919050565b60006144238261439a565b91507fffffffffffffffffffffffffffffffffffffffffffffffffffffffffffffffff82141561445657614455614492565b5b600182019050919050565b600061446c8261439a565b91506144778361439a565b925082614487576144866144c1565b5b828206905092915050565b7f4e487b7100000000000000000000000000000000000000000000000000000000600052601160045260246000fd5b7f4e487b7100000000000000000000000000000000000000000000000000000000600052601260045260246000fd5b7f4e487b7100000000000000000000000000000000000000000000000000000000600052602260045260246000fd5b7f4e487b7100000000000000000000000000000000000000000000000000000000600052604160045260246000fd5b6000601f19601f8301169050919050565b61456881614330565b811461457357600080fd5b50565b61457f81614342565b811461458a57600080fd5b50565b6145968161434e565b81146145a157600080fd5b50565b6145ad8161439a565b81146145b857600080fd5b5056fe506c617965722061747461636b656420626f73732e204e657720626f73732068703a2025734142434445464748494a4b4c4d4e4f505152535455565758595a6162636465666768696a6b6c6d6e6f707172737475767778797a303132333435363738392b2f426f73732061747461636b656420706c617965722e204e657720706c617965722068703a2025730a4d696e746564204e465420772f20746f6b656e496420257320616e6420636861726163746572496e6465782025730a506c6179657220772f206368617261637465722025732061626f757420746f2061747461636b2e2048617320257320485020616e64202573204144a2646970667358221220cb1c5731144269bd0f09bb76959f8a4b160c02e8a568cef93a1953c453f9c7c764736f6c63430008000033446f6e6520696e697469616c6973696e6720626f737320257320772f2048502025732c20696d67202573446f6e6520696e697469616c6973696e6720257320772f2048502025732c20696d67202573",
  "linkReferences": {},
  "deployedLinkReferences": {}
}